{"contracts/FoodLog.sol":{"FoodLog":{"abi":[{"anonymous":false,"inputs":[{"indexed":false,"internalType":"string","name":"batchId","type":"string"},{"indexed":false,"internalType":"string","name":"farmerName","type":"string"},{"indexed":false,"internalType":"string","name":"crop","type":"string"},{"indexed":false,"internalType":"uint256","name":"quantity","type":"uint256"}],"name":"BatchVerified","type":"event"},{"inputs":[{"internalType":"string","name":"_batchId","type":"string"},{"internalType":"string","name":"_farmerName","type":"string"},{"internalType":"string","name":"_crop","type":"string"},{"internalType":"uint256","name":"_quantity","type":"uint256"}],"name":"verifyBatch","outputs":[],"stateMutability":"nonpayable","type":"function"}],"evm":{"bytecode":{"linkReferences":{},"object":"608060405234801561001057600080fd5b506103f8806100206000396000f3fe608060405234801561001057600080fd5b506004361061002b5760003560e01c806395a949d914610030575b600080fd5b61004a6004803603810190610045919061021f565b61004c565b005b7fab984483056c6bcc171e59305be37886cb88b067d6840e31ad605e664f1aac03848484846040516100819493929190610368565b60405180910390a150505050565b6000604051905090565b600080fd5b600080fd5b600080fd5b600080fd5b6000601f19601f8301169050919050565b7f4e487b7100000000000000000000000000000000000000000000000000000000600052604160045260246000fd5b6100f6826100ad565b810181811067ffffffffffffffff82111715610115576101146100be565b5b80604052505050565b600061012861008f565b905061013482826100ed565b919050565b600067ffffffffffffffff821115610154576101536100be565b5b61015d826100ad565b9050602081019050919050565b82818337600083830152505050565b600061018c61018784610139565b61011e565b9050828152602081018484840111156101a8576101a76100a8565b5b6101b384828561016a565b509392505050565b600082601f8301126101d0576101cf6100a3565b5b81356101e0848260208601610179565b91505092915050565b6000819050919050565b6101fc816101e9565b811461020757600080fd5b50565b600081359050610219816101f3565b92915050565b6000806000806080858703121561023957610238610099565b5b600085013567ffffffffffffffff8111156102575761025661009e565b5b610263878288016101bb565b945050602085013567ffffffffffffffff8111156102845761028361009e565b5b610290878288016101bb565b935050604085013567ffffffffffffffff8111156102b1576102b061009e565b5b6102bd878288016101bb565b92505060606102ce8782880161020a565b91505092959194509250565b600081519050919050565b600082825260208201905092915050565b60005b838110156103145780820151818401526020810190506102f9565b60008484015250505050565b600061032b826102da565b61033581856102e5565b93506103458185602086016102f6565b61034e816100ad565b840191505092915050565b610362816101e9565b82525050565b600060808201905081810360008301526103828187610320565b905081810360208301526103968186610320565b905081810360408301526103aa8185610320565b90506103b96060830184610359565b9594505050505056fea26469706673582212206ce49a0ec3e5c934ee073143e312b775e59fbfbb42150d84bce2567c8cf92cc164736f6c63430008180033","opcodes":"PUSH1 0x80 PUSH1 0x40 MSTORE CALLVALUE DUP1 ISZERO PUSH2 0x10 JUMPI PUSH1 0x0 DUP1 REVERT JUMPDEST POP PUSH2 0x3F8 DUP1 PUSH2 0x20 PUSH1 0x0 CODECOPY PUSH1 0x0 RETURN INVALID PUSH1 0x80 PUSH1 0x40 MSTORE CALLVALUE DUP1 ISZERO PUSH2 0x10 JUMPI PUSH1 0x0 DUP1 REVERT JUMPDEST POP PUSH1 0x4 CALLDATASIZE LT PUSH2 0x2B JUMPI PUSH1 0x0 CALLDATALOAD PUSH1 0xE0 SHR DUP1 PUSH4 0x95A949D9 EQ PUSH2 0x30 JUMPI JUMPDEST PUSH1 0x0 DUP1 REVERT JUMPDEST PUSH2 0x4A PUSH1 0x4 DUP1 CALLDATASIZE SUB DUP2 ADD SWAP1 PUSH2 0x45 SWAP2 SWAP1 PUSH2 0x21F JUMP JUMPDEST PUSH2 0x4C JUMP JUMPDEST STOP JUMPDEST PUSH32 0xAB984483056C6BCC171E59305BE37886CB88B067D6840E31AD605E664F1AAC03 DUP5 DUP5 DUP5 DUP5 PUSH1 0x40 MLOAD PUSH2 0x81 SWAP5 SWAP4 SWAP3 SWAP2 SWAP1 PUSH2 0x368 JUMP JUMPDEST PUSH1 0x40 MLOAD DUP1 SWAP2 SUB SWAP1 LOG1 POP POP POP POP JUMP JUMPDEST PUSH1 0x0 PUSH1 0x40 MLOAD SWAP1 POP SWAP1 JUMP JUMPDEST PUSH1 0x0 DUP1 REVERT JUMPDEST PUSH1 0x0 DUP1 REVERT JUMPDEST PUSH1 0x0 DUP1 REVERT JUMPDEST PUSH1 0x0 DUP1 REVERT JUMPDEST PUSH1 0x0 PUSH1 0x1F NOT PUSH1 0x1F DUP4 ADD AND SWAP1 POP SWAP2 SWAP1 POP JUMP JUMPDEST PUSH32 0x4E487B7100000000000000000000000000000000000000000000000000000000 PUSH1 0x0 MSTORE PUSH1 0x41 PUSH1 0x4 MSTORE PUSH1 0x24 PUSH1 0x0 REVERT JUMPDEST PUSH2 0xF6 DUP3 PUSH2 0xAD JUMP JUMPDEST DUP2 ADD DUP2 DUP2 LT PUSH8 0xFFFFFFFFFFFFFFFF DUP3 GT OR ISZERO PUSH2 0x115 JUMPI PUSH2 0x114 PUSH2 0xBE JUMP JUMPDEST JUMPDEST DUP1 PUSH1 0x40 MSTORE POP POP POP JUMP JUMPDEST PUSH1 0x0 PUSH2 0x128 PUSH2 0x8F JUMP JUMPDEST SWAP1 POP PUSH2 0x134 DUP3 DUP3 PUSH2 0xED JUMP JUMPDEST SWAP2 SWAP1 POP JUMP JUMPDEST PUSH1 0x0 PUSH8 0xFFFFFFFFFFFFFFFF DUP3 GT ISZERO PUSH2 0x154 JUMPI PUSH2 0x153 PUSH2 0xBE JUMP JUMPDEST JUMPDEST PUSH2 0x15D DUP3 PUSH2 0xAD JUMP JUMPDEST SWAP1 POP PUSH1 0x20 DUP2 ADD SWAP1 POP SWAP2 SWAP1 POP JUMP JUMPDEST DUP3 DUP2 DUP4 CALLDATACOPY PUSH1 0x0 DUP4 DUP4 ADD MSTORE POP POP POP JUMP JUMPDEST PUSH1 0x0 PUSH2 0x18C PUSH2 0x187 DUP5 PUSH2 0x139 JUMP JUMPDEST PUSH2 0x11E JUMP JUMPDEST SWAP1 POP DUP3 DUP2 MSTORE PUSH1 0x20 DUP2 ADD DUP5 DUP5 DUP5 ADD GT ISZERO PUSH2 0x1A8 JUMPI PUSH2 0x1A7 PUSH2 0xA8 JUMP JUMPDEST JUMPDEST PUSH2 0x1B3 DUP5 DUP3 DUP6 PUSH2 0x16A JUMP JUMPDEST POP SWAP4 SWAP3 POP POP POP JUMP JUMPDEST PUSH1 0x0 DUP3 PUSH1 0x1F DUP4 ADD SLT PUSH2 0x1D0 JUMPI PUSH2 0x1CF PUSH2 0xA3 JUMP JUMPDEST JUMPDEST DUP2 CALLDATALOAD PUSH2 0x1E0 DUP5 DUP3 PUSH1 0x20 DUP7 ADD PUSH2 0x179 JUMP JUMPDEST SWAP2 POP POP SWAP3 SWAP2 POP POP JUMP JUMPDEST PUSH1 0x0 DUP2 SWAP1 POP SWAP2 SWAP1 POP JUMP JUMPDEST PUSH2 0x1FC DUP2 PUSH2 0x1E9 JUMP JUMPDEST DUP2 EQ PUSH2 0x207 JUMPI PUSH1 0x0 DUP1 REVERT JUMPDEST POP JUMP JUMPDEST PUSH1 0x0 DUP2 CALLDATALOAD SWAP1 POP PUSH2 0x219 DUP2 PUSH2 0x1F3 JUMP JUMPDEST SWAP3 SWAP2 POP POP JUMP JUMPDEST PUSH1 0x0 DUP1 PUSH1 0x0 DUP1 PUSH1 0x80 DUP6 DUP8 SUB SLT ISZERO PUSH2 0x239 JUMPI PUSH2 0x238 PUSH2 0x99 JUMP JUMPDEST JUMPDEST PUSH1 0x0 DUP6 ADD CALLDATALOAD PUSH8 0xFFFFFFFFFFFFFFFF DUP2 GT ISZERO PUSH2 0x257 JUMPI PUSH2 0x256 PUSH2 0x9E JUMP JUMPDEST JUMPDEST PUSH2 0x263 DUP8 DUP3 DUP9 ADD PUSH2 0x1BB JUMP JUMPDEST SWAP5 POP POP PUSH1 0x20 DUP6 ADD CALLDATALOAD PUSH8 0xFFFFFFFFFFFFFFFF DUP2 GT ISZERO PUSH2 0x284 JUMPI PUSH2 0x283 PUSH2 0x9E JUMP JUMPDEST JUMPDEST PUSH2 0x290 DUP8 DUP3 DUP9 ADD PUSH2 0x1BB JUMP JUMPDEST SWAP4 POP POP PUSH1 0x40 DUP6 ADD CALLDATALOAD PUSH8 0xFFFFFFFFFFFFFFFF DUP2 GT ISZERO PUSH2 0x2B1 JUMPI PUSH2 0x2B0 PUSH2 0x9E JUMP JUMPDEST JUMPDEST PUSH2 0x2BD DUP8 DUP3 DUP9 ADD PUSH2 0x1BB JUMP JUMPDEST SWAP3 POP POP PUSH1 0x60 PUSH2 0x2CE DUP8 DUP3 DUP9 ADD PUSH2 0x20A JUMP JUMPDEST SWAP2 POP POP SWAP3 SWAP6 SWAP2 SWAP5 POP SWAP3 POP JUMP JUMPDEST PUSH1 0x0 DUP2 MLOAD SWAP1 POP SWAP2 SWAP1 POP JUMP JUMPDEST PUSH1 0x0 DUP3 DUP3 MSTORE PUSH1 0x20 DUP3 ADD SWAP1 POP SWAP3 SWAP2 POP POP JUMP JUMPDEST PUSH1 0x0 JUMPDEST DUP4 DUP2 LT ISZERO PUSH2 0x314 JUMPI DUP1 DUP3 ADD MLOAD DUP2 DUP5 ADD MSTORE PUSH1 0x20 DUP2 ADD SWAP1 POP PUSH2 0x2F9 JUMP JUMPDEST PUSH1 0x0 DUP5 DUP5 ADD MSTORE POP POP POP POP JUMP JUMPDEST PUSH1 0x0 PUSH2 0x32B DUP3 PUSH2 0x2DA JUMP JUMPDEST PUSH2 0x335 DUP2 DUP6 PUSH2 0x2E5 JUMP JUMPDEST SWAP4 POP PUSH2 0x345 DUP2 DUP6 PUSH1 0x20 DUP7 ADD PUSH2 0x2F6 JUMP JUMPDEST PUSH2 0x34E DUP2 PUSH2 0xAD JUMP JUMPDEST DUP5 ADD SWAP2 POP POP SWAP3 SWAP2 POP POP JUMP JUMPDEST PUSH2 0x362 DUP2 PUSH2 0x1E9 JUMP JUMPDEST DUP3 MSTORE POP POP JUMP JUMPDEST PUSH1 0x0 PUSH1 0x80 DUP3 ADD SWAP1 POP DUP2 DUP2 SUB PUSH1 0x0 DUP4 ADD MSTORE PUSH2 0x382 DUP2 DUP8 PUSH2 0x320 JUMP JUMPDEST SWAP1 POP DUP2 DUP2 SUB PUSH1 0x20 DUP4 ADD MSTORE PUSH2 0x396 DUP2 DUP7 PUSH2 0x320 JUMP JUMPDEST SWAP1 POP DUP2 DUP2 SUB PUSH1 0x40 DUP4 ADD MSTORE PUSH2 0x3AA DUP2 DUP6 PUSH2 0x320 JUMP JUMPDEST SWAP1 POP PUSH2 0x3B9 PUSH1 0x60 DUP4 ADD DUP5 PUSH2 0x359 JUMP JUMPDEST SWAP6 SWAP5 POP POP POP POP POP JUMP INVALID LOG2 PUSH5 0x6970667358 0x22 SLT KECCAK256 PUSH13 0xE49A0EC3E5C934EE073143E312 0xB7 PUSH22 0xE59FBFBB42150D84BCE2567C8CF92CC164736F6C6343 STOP ADDMOD XOR STOP CALLER "},"methodIdentifiers":{"verifyBatch(string,string,string,uint256)":"95a949d9"}}}}}