{
  "_format": "hh-sol-artifact-1",
  "contractName": "FoodLog",
  "sourceName": "contracts/FoodLog.sol",
  "abi": [
    {
      "anonymous": false,
      "inputs": [
        {
          "indexed": false,
          "internalType": "string",
          "name": "batchId",
          "type": "string"
        },
        {
          "indexed": false,
          "internalType": "string",
          "name": "farmerName",
          "type": "string"
        },
        {
          "indexed": false,
          "internalType": "string",
          "name": "crop",
          "type": "string"
        },
        {
          "indexed": false,
          "internalType": "uint256",
          "name": "quantity",
          "type": "uint256"
        }
      ],
      "name": "BatchVerified",
      "type": "event"
    },
    {
      "inputs": [
        {
          "internalType": "string",
          "name": "_batchId",
          "type": "string"
        },
        {
          "internalType": "string",
          "name": "_farmerName",
          "type": "string"
        },
        {
          "internalType": "string",
          "name": "_crop",
          "type": "string"
        },
        {
          "internalType": "uint256",
          "name": "_quantity",
          "type": "uint256"
        }
      ],
      "name": "verifyBatch",
      "outputs": [],
      "stateMutability": "nonpayable",
      "type": "function"
    }
  ],
  "bytecode": "0x608060405234801561001057600080fd5b506103f8806100206000396000f3fe608060405234801561001057600080fd5b506004361061002b5760003560e01c806395a949d914610030575b600080fd5b61004a6004803603810190610045919061021f565b61004c565b005b7fab984483056c6bcc171e59305be37886cb88b067d6840e31ad605e664f1aac03848484846040516100819493929190610368565b60405180910390a150505050565b6000604051905090565b600080fd5b600080fd5b600080fd5b600080fd5b6000601f19601f8301169050919050565b7f4e487b7100000000000000000000000000000000000000000000000000000000600052604160045260246000fd5b6100f6826100ad565b810181811067ffffffffffffffff82111715610115576101146100be565b5b80604052505050565b600061012861008f565b905061013482826100ed565b919050565b600067ffffffffffffffff821115610154576101536100be565b5b61015d826100ad565b9050602081019050919050565b82818337600083830152505050565b600061018c61018784610139565b61011e565b9050828152602081018484840111156101a8576101a76100a8565b5b6101b384828561016a565b509392505050565b600082601f8301126101d0576101cf6100a3565b5b81356101e0848260208601610179565b91505092915050565b6000819050919050565b6101fc816101e9565b811461020757600080fd5b50565b600081359050610219816101f3565b92915050565b6000806000806080858703121561023957610238610099565b5b600085013567ffffffffffffffff8111156102575761025661009e565b5b610263878288016101bb565b945050602085013567ffffffffffffffff8111156102845761028361009e565b5b610290878288016101bb565b935050604085013567ffffffffffffffff8111156102b1576102b061009e565b5b6102bd878288016101bb565b92505060606102ce8782880161020a565b91505092959194509250565b600081519050919050565b600082825260208201905092915050565b60005b838110156103145780820151818401526020810190506102f9565b60008484015250505050565b600061032b826102da565b61033581856102e5565b93506103458185602086016102f6565b61034e816100ad565b840191505092915050565b610362816101e9565b82525050565b600060808201905081810360008301526103828187610320565b905081810360208301526103968186610320565b905081810360408301526103aa8185610320565b90506103b96060830184610359565b9594505050505056fea26469706673582212206ce49a0ec3e5c934ee073143e312b775e59fbfbb42150d84bce2567c8cf92cc164736f6c63430008180033",
  "linkReferences": {},
  "deployedLinkReferences": {}
}